:020000040800F2
:1000000000500020250500086D0500086D0500085A
:100010006D0500086D0500086D0500080000000072
:100020000000000000000000000000006D05000856
:100030006D050008000000006D0500086D05000852
:100040006D0500086D0500086D0500086D050008C8
:100050006D0500086D0500086D0500086D050008B8
:100060006D0500086D0500086D0500086D050008A8
:100070006D0500086D0500086D0500086D05000898
:100080006D0500086D0500086D0500086D05000888
:100090006D0500086D0500086D0500086D05000878
:1000A0006D0500086D0500086D0500086D05000868
:1000B0006D0500086D0500086D0500086D05000858
:1000C0006D0500086D0500086D0500086D05000848
:1000D0006D0500086D0500086D0500086D05000838
:1000E0006D0500086D0500086D05000800000000A2
:1000F0000000000000000000000000000000000000
:0C01000000000000000000005FF808F1A3
:10010C000348044B834202D0034B03B1184770479A
:10011C00480400204804002000000000054806495F
:10012C000B1AD90F01EBA301491002D0034B03B1F9
:10013C0018477047480400204804002000000000C5
:10014C0010B5064C237843B9FFF7DAFF044B13B113
:10015C000448AFF300800123237010BD4804002035
:10016C00000000008405000808B5044B1BB10449CD
:10017C000448AFF30080BDE80840CFE70000000062
:10018C004C0400208405000880B400AF074B9B6929
:10019C00064A43F004039361044B9B69034A43F4FE
:1001AC008043936100BFBD4680BC70470010024085
:1001BC0080B500AF00F002F800BF80BD80B400AF86
:1001CC000F4B40F241321A810D4B9B899BB20C4A6A
:1001DC0043F008039BB29381094B9B899BB2084A5D
:1001EC0043F004039BB29381054B9B899BB2044A59
:1001FC0043F400539BB2938100BFBD4680BC704753
:10020C000038014080B483B000AF0346FB7100BFDF
:10021C00074B1B889BB203F04003002BF8D0044B18
:10022C00FA7992B29A8000BF0C37BD4680BC7047F9
:10023C000038014080B582B000AF78600B46FB708F
:10024C0006E07B685A1C7A601B781846FFF7DAFFC9
:10025C00FB785A1EFA70002BF3D100BF00BF083791
:10026C00BD4680BD80B500AFFFF78EFF00F006F8ED
:10027C00FFF79EFF3120FFF7C5FFFEE780B500AF0B
:10028C0000F002F800BF80BD80B400AF104B5B687B
:10029C000F4A23F0C00353600D4B5B680C4A23F4E8
:1002AC00406353600A4B5B68094A43F08003536018
:1002BC00074B5B68064A43F480635360044B5B68EE
:1002CC00034A43F02003536000BFBD4680BC704717
:1002DC000008014080B500AF154B1B68144A43F071
:1002EC0001031360124B5A681149124B13404B60B7
:1002FC000F4B1B680E4A23F0847323F48033136076
:10030C000B4B1B680A4A23F480231360084B5B6871
:10031C00074A23F4FE035360054B4FF41F029A6007
:10032C0000F07EF8044B4FF000629A6000BF80BD75
:10033C00001002400000FFF800ED00E080B485B032
:10034C0000AF0023FB600023BB6000237B602F4BBE
:10035C005B6803F00C03FB60FB68082B11D0FB6897
:10036C00082B3AD8FB68002B03D0FB68042B04D075
:10037C0033E0274B274A1A6033E0254B254A1A6095
:10038C002FE0224B5B6803F47013BB601F4B5B6860
:10039C0003F480337B60BB689B0C0233BB607B68CF
:1003AC00002B06D1BB681C4A02FB03F3184A1360EE
:1003BC0017E0164B5B6803F40033002B06D0BB68C8
:1003CC00154A02FB03F3124A13600AE0BB68114A98
:1003DC0002FB03F30E4A136003E00D4B0D4A1A6047
:1003EC0000BF0A4B5B681B0903F00F030B4AD35C7D
:1003FC00DBB2FB60064B1A68FB6822FA03F3044A73
:10040C00136000BF1437BD4680BC7047001002401B
:10041C000000002000127A0000093D0004000020BA
:10042C0080B400AF00BFBD4680BC704700230146BE
:10043C001A46184600F03EB838B50A4C0A4D641BF3
:10044C00A4100AD004F18043013B05EB8305013C69
:10045C0055F804399847002CF9D1BDE8384000F024
:10046C0091B800BFAC050008A805000870B50D4E8A
:10047C000D4D761BB61006D00024013455F8043B04
:10048C009847A642F9D1094E094D00F075F8761B34
:10049C00B61006D00024013455F8043B9847A64208
:1004AC00F9D170BDA0050008A0050008A80500083A
:1004BC00A0050008F0B4174C2568D5F848410CB3DA
:1004CC0065681F2D23DC38B900206B1C0235636076
:1004DC0044F82510F0BC7047012604EB850CCCF8D1
:1004EC008820D4F8887106FA05F217430228C4F85C
:1004FC008871CCF80831E7D1D4F88C311A43C4F8A0
:10050C008C21E1E705F5A674C5F84841D8E74FF012
:10051C00FF30DFE79C050008002103E00B4B5B5824
:10052C00435004310A480B4B42189A42F6D30A4AFC
:10053C0002E0002342F8043B084B9A42F9D3FFF740
:10054C00C9FEFFF793FFFFF78DFE7047AC0500085F
:10055C00000000204804002048040020640400200F
:10056C00FEE70000024B13B10248FFF75FBF704774
:10057C000000000045040008F8B500BFF8BC08BC3A
:10058C009E467047F8B500BFF8BC08BC9E46704745
:04059C00200000201B
:0805A000710500087501000857
:0405A8004D010008F9
:1005AC0000127A00000000000000000001020304A9
:1005BC0006070809000000002000002000000000D1
:1005CC00000000000C03002074030020DC0300205A
:1005DC00000000000000000000000000000000000F
:1005EC0000000000000000000000000000000000FF
:1005FC0000000000000000000000000000000000EF
:10060C0000000000000000000000000000000000DE
:10061C0000000000000000000000000000000000CE
:10062C0000000000000000000000000000000000BE
:10063C0000000000000000000000000000000000AE
:10064C00000000000000000000000000000000009E
:10065C00000000000000000000000000000000008E
:10066C00000000000000000001000000000000007D
:10067C000E33CDAB34126DE6ECDE05000B00000042
:10068C00000000000000000000000000000000005E
:10069C00000000000000000000000000000000004E
:1006AC00000000000000000000000000000000003E
:1006BC00000000000000000000000000000000002E
:0400000508000525C5
:00000001FF
