:020000040800F2
:1000000000500020E1060008290700082907000821
:100010002907000829070008290700080000000038
:100020000000000000000000000000002907000898
:100030002907000800000000290700082907000818
:1000400029070008290700082907000829070008D0
:1000500029070008290700082907000829070008C0
:1000600029070008290700082907000829070008B0
:1000700029070008290700082907000829070008A0
:100080002907000829070008290700082907000890
:100090002907000829070008290700082907000880
:1000A0002907000829070008290700082907000870
:1000B0002907000829070008290700082907000860
:1000C0002907000829070008290700082907000850
:1000D0002907000829070008290700082907000840
:1000E0002907000829070008290700080000000068
:1000F0000000000000000000000000000000000000
:0C01000000000000000000005FF808F1A3
:10010C000348044B834202D0034B03B1184770479A
:10011C00480400204804002000000000054806495F
:10012C000B1AD90F01EBA301491002D0034B03B1F9
:10013C0018477047480400204804002000000000C5
:10014C0010B5064C237843B9FFF7DAFF044B13B113
:10015C000448AFF300800123237010BD4804002035
:10016C00000000004007000808B5044B1BB104490F
:10017C000448AFF30080BDE80840CFE70000000062
:10018C004C0400204007000880B400AF0A4B9B6968
:10019C00094A43F004039361074B9B69064A43F0F9
:1001AC0008039361044B9B69034A43F480439361B6
:1001BC0000BFBD4680BC70470010024080B500AF48
:1001CC0000F002F800BF80BD80B400AF0F4B40F2CE
:1001DC0041321A810D4B9B899BB20C4A43F00803A8
:1001EC009BB29381094B9B899BB2084A43F0040351
:1001FC009BB29381054B9B899BB2044A43F40053F9
:10020C009BB2938100BFBD4680BC70470038014053
:10021C0080B483B000AF0346FB7100BF074B1B8853
:10022C009BB203F04003002BF8D0044BFA7992B246
:10023C009A8000BF0C37BD4680BC70470038014027
:10024C0080B582B000AF78600B46FB7006E07B682F
:10025C005A1C7A601B781846FFF7DAFFFB785A1E97
:10026C00FA70002BF3D100BF00BF0837BD4680BD2C
:10027C0080B500AFFFF788FF00F006F8FFF79EFF90
:10028C0000F0E8F8FEE7000080B500AF00F004F8DD
:10029C0000F028F800BF80BD80B400AF104B5B6845
:1002AC000F4A23F0C00353600D4B5B680C4A23F4D8
:1002BC00406353600A4B5B68094A43F08003536008
:1002CC00074B5B68064A43F480635360044B5B68DE
:1002DC00034A43F02003536000BFBD4680BC704707
:1002EC000008014080B400AF594B1B68584A23F0FA
:1002FC000C031360564B1B68554A23F0C003136064
:10030C00534B1B68524A23F440431360504B1B68F9
:10031C004F4A23F4402313604D4B1B684C4A23F483
:10032C00400313604A4B1B68494A23F04063136037
:10033C00474B1B68464A23F040431360444B5B68B1
:10034C00434A23F00C035360414B5B68404A23F053
:10035C00C00353603E4B5B683D4A23F440635360DB
:10036C003B4B5B683A4A23F440435360384B1B6861
:10037C00374A43F002031360354B1B68344A43F091
:10038C0020031360324B1B68314A43F40053136053
:10039C002F4B1B682E4A43F4003313602C4B1B6805
:1003AC002B4A43F400131360294B1B68284A43F073
:1003BC0000731360264B1B68254A43F000531360EF
:1003CC00234B5B68224A43F002035360204B5B686B
:1003DC001F4A43F0200353601D4B5B681C4A43F4D7
:1003EC00007353601A4B5B68194A43F40053536013
:1003FC00174B4FF480321A61154B4FF400321A61CF
:10040C00134B4FF400221A61114B4FF480121A61F6
:10041C000F4B4FF400121A610D4B4FF480021A610E
:10042C000B4B4FF400021A61094B4FF080721A61AA
:10043C00074B4FF000721A61054B4FF480621A6142
:10044C00034B4FF400621A6100BFBD4680BC70477D
:10045C00000C014080B500AF002000F002F800BF96
:10046C0080BD80B483B000AF0346FB71FB79002BD9
:10047C0001D0012B03E0044B044A1A6100BF00BFFA
:10048C000C37BD4680BC7047000C01400300F800DF
:10049C0080B500AF154B1B68144A43F00103136081
:1004AC00124B5A681149124B13404B600F4B1B688F
:1004BC000E4A23F0847323F4803313600B4B1B68B8
:1004CC000A4A23F480231360084B5B68074A23F421
:1004DC00FE035360054B4FF41F029A6000F07EF848
:1004EC00044B4FF000629A6000BF80BD00100240C8
:1004FC000000FFF800ED00E080B485B000AF0023F1
:10050C00FB600023BB6000237B602F4B5B6803F018
:10051C000C03FB60FB68082B11D0FB68082B3AD846
:10052C00FB68002B03D0FB68042B04D033E0274B73
:10053C00274A1A6033E0254B254A1A602FE0224BDC
:10054C005B6803F47013BB601F4B5B6803F4803370
:10055C007B60BB689B0C0233BB607B68002B06D1B5
:10056C00BB681C4A02FB03F3184A136017E0164BD6
:10057C005B6803F40033002B06D0BB68154A02FB02
:10058C0003F3124A13600AE0BB68114A02FB03F33F
:10059C000E4A136003E00D4B0D4A1A6000BF0A4B64
:1005AC005B681B0903F00F030B4AD35CDBB2FB60E7
:1005BC00064B1A68FB6822FA03F3044A136000BF67
:1005CC001437BD4680BC704700100240000000206C
:1005DC0000127A0000093D000400002080B400AF36
:1005EC0000BFBD4680BC7047002301461A46184622
:1005FC0000F03EB838B50A4C0A4D641BA4100AD062
:10060C0004F18043013B05EB8305013C55F80439AB
:10061C009847002CF9D1BDE8384000F091B800BFE4
:10062C00680700086407000870B50D4E0D4D761B69
:10063C00B61006D00024013455F8043B9847A64266
:10064C00F9D1094E094D00F075F8761BB61006D09D
:10065C000024013455F8043B9847A642F9D170BDEB
:10066C005C0700085C070008640700085C070008CA
:10067C00F0B4174C2568D5F848410CB365681F2DAC
:10068C0023DC38B900206B1C0235636044F825105C
:10069C00F0BC7047012604EB850CCCF88820D4F80C
:1006AC00887106FA05F217430228C4F88871CCF851
:1006BC000831E7D1D4F88C311A43C4F88C21E1E726
:1006CC0005F5A674C5F84841D8E74FF0FF30DFE7D1
:1006DC0058070008002103E00B4B5B5843500431D2
:1006EC000A480B4B42189A42F6D30A4A02E00023FE
:1006FC0042F8043B084B9A42F9D3FFF7C9FEFFF7C7
:10070C0093FFFFF7B5FD7047680700080000002055
:10071C00480400204804002064040020FEE7000088
:10072C00024B13B10248FFF75FBF70470000000097
:10073C0001060008F8B500BFF8BC08BC9E4670471F
:0C074C00F8B500BFF8BC08BC9E46704722
:04075800200000205D
:08075C002D07000875010008DB
:040764004D0100083B
:1007680000127A00000000000000000001020304EB
:100778000607080900000000200000200000000013
:10078800000000000C03002074030020DC0300209C
:100798000000000000000000000000000000000051
:1007A8000000000000000000000000000000000041
:1007B8000000000000000000000000000000000031
:1007C8000000000000000000000000000000000021
:1007D8000000000000000000000000000000000011
:1007E8000000000000000000000000000000000001
:1007F80000000000000000000000000000000000F1
:1008080000000000000000000000000000000000E0
:1008180000000000000000000000000000000000D0
:1008280000000000000000000100000000000000BF
:100838000E33CDAB34126DE6ECDE05000B00000084
:1008480000000000000000000000000000000000A0
:100858000000000000000000000000000000000090
:100868000000000000000000000000000000000080
:100878000000000000000000000000000000000070
:04000005080006E108
:00000001FF
