:020000040800F2
:10000000005000206D120008B5120008B51200085B
:10001000B5120008B5120008B51200080000000073
:10002000000000000000000000000000B512000801
:10003000B512000800000000B5120008B512000853
:10004000B5120008B5120008B5120008B512000874
:10005000B5120008B5120008B5120008B512000864
:100060007D050008B905000831060008B512000832
:10007000B5120008B5120008B5120008B512000844
:10008000B5120008B5120008F1030008B512000807
:10009000B5120008B5120008B5120008B512000824
:1000A000B5120008B5120008B5120008B512000814
:1000B000B1040008210500084D050008B51200082C
:1000C000B5120008B5120008B5120008B5120008F4
:1000D000B5120008B5120008A5040008B512000802
:1000E000B5120008B5120008B512000800000000A3
:1000F0000000000000000000000000000000000000
:0C01000000000000000000005FF808F1A3
:10010C000348044B834202D0034B03B1184770479A
:10011C00580400205804002000000000054806493F
:10012C000B1AD90F01EBA301491002D0034B03B1F9
:10013C0018477047580400205804002000000000A5
:10014C0010B5064C237843B9FFF7DAFF044B13B113
:10015C000448AFF300800123237010BD5804002025
:10016C0000000000CC12000808B5044B1BB1044978
:10017C000448AFF30080BDE80840CFE70000000062
:10018C005C040020CC12000880B400AF194BDB6972
:10019C00184A43F00103D361164BDB69154A43F04F
:1001AC000203D361134BDB69124A43F00403D3619E
:1001BC00104B9B690F4A43F0010393610D4B9B69F4
:1001CC000C4A43F0040393610A4B9B69094A43F0C0
:1001DC0008039361074B9B69064A43F400739361D0
:1001EC00044B9B69034A43F48043936100BFBD46B3
:1001FC0080BC70470010024080B500AF00F002F8E0
:10020C0000BF80BD80B400AF0F4B40F241321A8169
:10021C000D4B9B899BB20C4A43F008039BB2938114
:10022C00094B9B899BB2084A43F004039BB2938110
:10023C00054B9B899BB2044A43F400539BB29381B8
:10024C0000BFBD4680BC70470038014080B483B00D
:10025C0000AF0346FB7100BF074B1B889BB203F03A
:10026C004003002BF8D0044BFA7992B29A8000BF6D
:10027C000C37BD4680BC70470038014080B582B059
:10028C0000AF78600B46FB7006E07B685A1C7A6006
:10029C001B781846FFF7DAFFFB785A1EFA70002B12
:1002AC00F3D100BF00BF0837BD4680BD80B500AF9D
:1002BC00FFF76AFF00F0D4F900F02EF8FFF79CFF6F
:1002CC0000F040FCFEE7B0B483B000AF78600B46A2
:1002DC00FB704FF6FF7414E07B685A1C7A601B7835
:1002EC005C4000250BE004F00103002B05D06308F3
:1002FC0083F4204484F0010400E064080135072DE8
:10030C00F1DDFB785A1EFA70002BE5D1A3B218462A
:10031C000C37BD46B0BC704780B400AF2E4B1B6889
:10032C002D4A43F4807313602B4B1B682A4A43F409
:10033C0000731360284B1B68274A43F480631360D7
:10034C00254B1B68244A43F480231360224B1B6803
:10035C00214A43F0805313601F4B1B681E4A43F025
:10036C00005313601C4B1B681B4A43F08043136003
:10037C001A4B1A4A9B689360184B184A9B689360F7
:10038C00164B164ADB68D360154B9B68144A43F036
:10039C0004039360124B9B68114A43F0080393606B
:1003AC000F4B9B680E4A43F0100393600C4B1B6879
:1003BC000B4A43F004031360094B1B68084A43F0D3
:1003CC0008031360064B1B68054A43F010031360C7
:1003DC0000BFBD4680BC704700E100E0000001405A
:1003EC000004014080B500AF244B9B6803F002036E
:1003FC00002B20D0224BDB6C184600F043FE02464B
:10040C00204B1B681946104600F0D2FC03461A46D6
:10041C001D4B1B681946104600F0CAFC03461A46D1
:10042C001A4B1B681946104600F07AFD03461A4613
:10043C00174B1A601FE0124BDB6C184600F022FEC3
:10044C000246104B1B681946104600F0B1FC0346DF
:10045C001A46104B1B681946104600F0A9FC0346BF
:10046C001A460A4B1B681946104600F059FD034604
:10047C001A46074B1A6000BF80BD00BF0008014040
:10048C00002401400000002004000020780400201B
:10049C00740400200800002080B400AF00BFBD46EB
:1004AC0080BC704780B500AF4FF080431B8A9BB275
:1004BC004FF0804223F001039BB21382144B1B7844
:1004CC001846FFF7C3FE124B5B781846FFF7BEFECB
:1004DC000F4B9B781846FFF7B9FE0D4BDB7818468F
:1004EC00FFF7B4FE0A4B1B791846FFF7AFFE084B1B
:1004FC005B791846FFF7AAFE054B9B791846FFF768
:10050C00A5FE034BDB791846FFF7A0FE00BF80BDAC
:10051C000C00002080B400AF074B1B8A9BB2064A2C
:10052C0023F001039BB21382044B20221A6100BFFB
:10053C00BD4680BC704700BF00040040000801406D
:10054C0080B500AF084B1B8A9BB2074A23F001030E
:10055C009BB21382054B9B68044A43F4800393605F
:10056C0000F0E0F900BF80BD00080040002401400D
:10057C0080B400AF0A4B5B69094A43F00403536132
:10058C00084B4FF400121A61074B1B889BB2064AAA
:10059C0043F001039BB2138000BFBD4680BC704783
:1005AC0000040140000801400004004080B500AF89
:1005BC00154B5B69144A43F008035361134B4FF41A
:1005CC0000121A61124B1B889BB2114A43F00103B3
:1005DC009BB213800F4BDB6C184600F053FD0246A8
:1005EC000D4B1B681946104600F0E2FB03461A46F9
:1005FC000A4B1B681946104600F0DAFB03461A46F4
:10060C00074B1A6000BF80BD000401400008014088
:10061C0000040040002401400000002004000020E1
:10062C007804002080B400AF0A4B5B69094A43F0A0
:10063C0010035361084B4FF400121A61074B1B88CF
:10064C009BB2064A43F001039BB2138000BFBD4628
:10065C0080BC7047000401400008014000040040C9
:10066C0080B500AF00F006F800F012F800F0A2F828
:10067C0000BF80BD80B400AF044B5B68034A43F0FD
:10068C000073536000BFBD4680BC70470000014042
:10069C0080B400AF464B1B68454A23F00C03136033
:1006AC00434B1B68424A23F0C0031360404B1B684A
:1006BC003F4A23F4406313603D4B1B683C4A23F4D0
:1006CC00404313603A4B1B68394A23F440231360B0
:1006DC00374B1B68364A23F440031360344B1B68BA
:1006EC00334A23F040631360314B1B68304A43F0AC
:1006FC00400313602E4B1B682D4A43F400631360B8
:10070C002B4B1B682A4A43F400431360284B1B688D
:10071C00274A43F400231360254B1B68244A43F4F7
:10072C0000131360224B1B68214A43F000731360C3
:10073C001F4BDB681E4A23F00403D3601C4BDB68A1
:10074C001B4A23F00803D360194BDB68184A23F0CB
:10075C001003D360164BDB68154A43F02003D360BB
:10076C00134BDB68124A43F04003D360104B5B68B9
:10077C000F4A23F0C00353600D4B5B680C4A23F403
:10078C00406353600A4B5B68094A43F08003536033
:10079C00074B5B68064A43F480635360044B5B6809
:1007AC00034A43F02003536000BFBD4680BC704732
:1007BC000008014080B400AF594B1B68584A23F025
:1007CC000C031360564B1B68554A23F0C00313608F
:1007DC00534B1B68524A23F440431360504B1B6825
:1007EC004F4A23F4402313604D4B1B684C4A23F4AF
:1007FC00400313604A4B1B68494A23F04063136063
:10080C00474B1B68464A23F040431360444B5B68DC
:10081C00434A23F00C035360414B5B68404A23F07E
:10082C00C00353603E4B5B683D4A23F44063536006
:10083C003B4B5B683A4A23F440435360384B1B688C
:10084C00374A43F002031360354B1B68344A43F0BC
:10085C0020031360324B1B68314A43F4005313607E
:10086C002F4B1B682E4A43F4003313602C4B1B6830
:10087C002B4A43F400131360294B1B68284A43F09E
:10088C0000731360264B1B68254A43F0005313601A
:10089C00234B5B68224A43F002035360204B5B6896
:1008AC001F4A43F0200353601D4B5B681C4A43F402
:1008BC00007353601A4B5B68194A43F4005353603E
:1008CC00174B4FF480321A61154B4FF400321A61FA
:1008DC00134B4FF400221A61114B4FF480121A6122
:1008EC000F4B4FF400121A610D4B4FF480021A613A
:1008FC000B4B4FF400021A61094B4FF080721A61D6
:10090C00074B4FF000721A61054B4FF480621A616D
:10091C00034B4FF400621A6100BFBD4680BC7047A8
:10092C00000C014080B500AF564B1B68184600F018
:10093C0001FC0346DAB2544B1A70524B1B685349F4
:10094C00184600F035FA0346184600F0F3FB034650
:10095C00DAB24D4B5A704C4B5A784D4BA3FB0213E9
:10096C00D9080B469B000B445B00D31ADAB2464BFA
:10097C005A70444B1B684749184600F019FA034655
:10098C00184600F0D7FB0346DAB23F4B9A703E4B49
:10099C009A783F4BA3FB0213D9080B469B000B44E0
:1009AC005B00D31ADAB2384B9A703B4B01225A6176
:1009BC00394B02225A61384B08225A61364B1022AD
:1009CC005A61354B20225A61334B40225A61324BCB
:1009DC0080225A61304B4FF480725A612E4B4FF487
:1009EC0000721A612C4B4FF480621A612A4B4FF43F
:1009FC0000621A61294B1B78022B34D0022B3FDC8E
:100A0C00002B02D0012B17D03AE0234B4FF0007291
:100A1C001A611D4B1B78184600F044F8204B9B685C
:100A2C0003F00203002B03D01B4B4FF480721A61AE
:100A3C001A4B01221A7023E0174B4FF080621A6197
:100A4C00114B5B78184600F02DF8154B9B6803F0A2
:100A5C000203002B03D1104B4FF480721A610F4B21
:100A6C0002221A700CE00C4B4FF000621A61064B1C
:100A7C009B78184600F016F8084B00221A7000BF3D
:100A8C0000BF80BD740400200C0000200000204139
:100A9C00CDCCCCCC0000C842000C01407C04002022
:100AAC000008014080B483B000AF0346FB71FB79B2
:100ABC00092B3FD801A252F823F000BFF10A00081D
:100ACC00F90A0008010B0008090B0008110B0008BB
:100ADC00190B0008210B0008290B0008310B00082A
:100AEC00390B0008164B7B221A6123E0144B0A22A7
:100AFC001A611FE0124BB3221A611BE0104B9B22B0
:100B0C001A6117E00E4BCA221A6113E00C4BD92262
:100B1C001A610FE00A4BF9221A610BE0084B0B2209
:100B2C001A6107E0064BFB221A6103E0044BDB223F
:100B3C001A6100BF00BF0C37BD4680BC704700BFB8
:100B4C00000C014080B500AF00F002F800BF80BD82
:100B5C0080B400AF4FF080439B899BB24FF0804232
:100B6C0043F001039BB293814FF080431B889BB2EF
:100B7C004FF0804243F080039BB213804FF08043D0
:100B8C0041F63F721A854FF0804340F6B8329A8591
:100B9C004FF080431B889BB24FF0804243F001031F
:100BAC009BB2138000BFBD4680BC704780B400AFC1
:100BBC00154B9B899BB2144A43F001039BB2938162
:100BCC00114B1B889BB2104A43F080039BB21380DD
:100BDC000D4B41F63F721A850B4B64229A850A4BDA
:100BEC001B889BB2084A43F008039BB21380064B48
:100BFC001B889BB2044A43F001039BB2138000BFD5
:100C0C00BD4680BC704700BF0004004080B400AFFC
:100C1C00104B9B899BB20F4A43F001039BB293810B
:100C2C000C4B1B889BB20B4A43F080039BB2138086
:100C3C00084B07221A85074B0A229A85054B1B88FD
:100C4C009BB2044A43F001039BB2138000BFBD4624
:100C5C0080BC70470008004080B500AF154B1B6886
:100C6C00144A43F001031360124B5A681149124B9A
:100C7C0013404B600F4B1B680E4A23F0847323F414
:100C8C00803313600B4B1B680A4A23F480231360D8
:100C9C00084B5B68074A23F4FE035360054B4FF483
:100CAC001F029A6000F07EF8044B4FF000629A60CD
:100CBC0000BF80BD001002400000FFF800ED00E016
:100CCC0080B485B000AF0023FB600023BB60002321
:100CDC007B602F4B5B6803F00C03FB60FB68082BFD
:100CEC0011D0FB68082B3AD8FB68002B03D0FB68AB
:100CFC00042B04D033E0274B274A1A6033E0254BF2
:100D0C00254A1A602FE0224B5B6803F47013BB601A
:100D1C001F4B5B6803F480337B60BB689B0C023316
:100D2C00BB607B68002B06D1BB681C4A02FB03F33B
:100D3C00184A136017E0164B5B6803F40033002B62
:100D4C0006D0BB68154A02FB03F3124A13600AE093
:100D5C00BB68114A02FB03F30E4A136003E00D4B10
:100D6C000D4A1A6000BF0A4B5B681B0903F00F03A6
:100D7C000B4AD35CDBB2FB60064B1A68FB6822FAA9
:100D8C0003F3044A136000BF1437BD4680BC7047A0
:100D9C00001002401400002000127A0000093D00EF
:100DAC001800002080B400AF00BFBD4680BC704767
:100DBC004FF0FF0C1CEAD0521EBF1CEAD15392EA32
:100DCC000C0F93EA0C0F6FD01A4480EA010C40020E
:100DDC0018BF5FEA41211ED04FF0006343EA501068
:100DEC0043EA5111A0FB01310CF00040B1F5000FAA
:100DFC003EBF490041EAD3715B0040EA010062F159
:100E0C007F02FD2A1DD8B3F1004F40EBC25008BF42
:100E1C0020F00100704790F0000F0CF0004C08BF60
:100E2C0049024CEA502040EA51207F3AC2BFD2F12D
:100E3C00FF0340EAC250704740F400004FF000033B
:100E4C00013A5DDC12F1190FDCBF00F00040704775
:100E5C00C2F10002410021FA02F1C2F1200200FAB3
:100E6C0002FC5FEA310040F1000053EA4C0308BF7A
:100E7C0020EADC70704792F0000F00F0004C02BFCB
:100E8C00400010F4000F013AF9D040EA0C0093F046
:100E9C00000F01F0004C02BF490011F4000F013BA0
:100EAC00F9D041EA0C018FE70CEAD15392EA0C0F0E
:100EBC0018BF93EA0C0F0AD030F0004C18BF31F079
:100ECC00004CD8D180EA010000F00040704790F04F
:100EDC00000F17BF90F0004F084691F0000F91F0F3
:100EEC00004F14D092EA0C0F01D142020FD193EAB9
:100EFC000C0F03D14B0218BF084608D180EA010041
:100F0C0000F0004040F0FE4040F40000704740F01C
:100F1C00FE4040F44000704780F0004002E000BF0B
:100F2C0081F0004142001FBF5FEA410392EA030FC8
:100F3C007FEA226C7FEA236C6AD04FEA1262D2EB12
:100F4C001363C1BFD218414048404140B8BF5B4217
:100F5C00192B88BF704710F0004F40F4000020F0B0
:100F6C007F4018BF404211F0004F41F4000121F0C6
:100F7C007F4118BF494292EA030F3FD0A2F1010210
:100F8C0041FA03FC10EB0C00C3F1200301FA03F14E
:100F9C0000F0004302D5494260EB4000B0F5000F71
:100FAC0013D3B0F1807F06D340084FEA310102F130
:100FBC000102FE2A51D2B1F1004F40EBC25008BFE2
:100FCC0020F0010040EA03007047490040EB0000AC
:100FDC00013A28BFB0F5000FEDD2B0FA80FCACF1AD
:100FEC00080CB2EB0C0200FA0CF0AABF00EBC250DA
:100FFC0052421843BCBFD0401843704792F0000FC8
:10100C0081F4000106BF80F400000132013BB5E71A
:10101C004FEA41037FEA226C18BF7FEA236C21D090
:10102C0092EA030F04D092F0000F08BF08467047F5
:10103C0090EA010F1CBF0020704712F07F4F04D1C3
:10104C00400028BF40F00040704712F100723CBFD6
:10105C0000F50000704700F0004343F0FE4040F400
:10106C00000070477FEA226216BF08467FEA2363BE
:10107C000146420206BF5FEA412390EA010F40F4A9
:10108C00800070474FF0000304E000BF10F00043F5
:10109C0048BF40425FEA000C08BF704743F09643DC
:1010AC0001464FF000001CE050EA010208BF7047F7
:1010BC004FF000030AE000BF50EA010208BF70477E
:1010CC0011F0004302D5404261EB41015FEA010C93
:1010DC0002BF84460146002043F0B64308BFA3F18B
:1010EC008053A3F50003BCFA8CF2083AA3EBC2536D
:1010FC0010DB01FA02FC634400FA02FCC2F120028C
:10110C00BCF1004F20FA02F243EB020008BF20F0C2
:10111C000100704702F1200201FA02FCC2F1200228
:10112C0050EA4C0021FA02F243EB020008BF20EA1D
:10113C00DC70704742000ED2B2F1FE4F0BD34FF071
:10114C009E03B3EB126209D44FEA002343F0004331
:10115C0023FA02F070474FF00000704712F1610F54
:10116C0001D1420202D14FF0FF3070474FF0000026
:10117C00704700BF002301461A46184600F03EB8DF
:10118C0038B50A4C0A4D641BA4100AD004F18043F4
:10119C00013B05EB8305013C55F804399847002CBD
:1011AC00F9D1BDE8384000F091B800BFF412000846
:1011BC00F012000870B50D4E0D4D761BB61006D012
:1011CC000024013455F8043B9847A642F9D1094E46
:1011DC00094D00F075F8761BB61006D000240134CA
:1011EC0055F8043B9847A642F9D170BDE8120008A7
:1011FC00E8120008F0120008E8120008F0B4174CCE
:10120C002568D5F848410CB365681F2D23DC38B927
:10121C0000206B1C0235636044F82510F0BC70474D
:10122C00012604EB850CCCF88820D4F8887106FADA
:10123C0005F217430228C4F88871CCF80831E7D1BD
:10124C00D4F88C311A43C4F88C21E1E705F5A67467
:10125C00C5F84841D8E74FF0FF30DFE7E41200084B
:10126C00002103E00B4B5B58435004310A480B4BF5
:10127C0042189A42F6D30A4A02E0002342F8043B91
:10128C00084B9A42F9D3FFF7E7FCFFF793FFFFF700
:10129C000DF87047F41200080000002058040020DC
:1012AC005804002080040020FEE70000024B13B11C
:1012BC000248FFF75FBF7047000000008D11000867
:1012CC00F8B500BFF8BC08BC9E467047F8B500BF27
:0812DC00F8BC08BC9E467047F7
:0412E40030000020B6
:0812E800B912000875010008AD
:0412F0004D010008A4
:1012F4003233533A7CF04140F6289C3E0A01000602
:1013040000011CB000127A00000000000000000080
:101314000102030406070809300000200000000051
:10132400000000001C03002084030020EC030020C4
:1013340000000000000000000000000000000000A9
:101344000000000000000000000000000000000099
:101354000000000000000000000000000000000089
:101364000000000000000000000000000000000079
:101374000000000000000000000000000000000069
:101384000000000000000000000000000000000059
:101394000000000000000000000000000000000049
:1013A4000000000000000000000000000000000039
:1013B4000000000000000000000000000000000029
:1013C4000000000000000000010000000000000018
:1013D4000E33CDAB34126DE6ECDE05000B000000DD
:1013E40000000000000000000000000000000000F9
:1013F40000000000000000000000000000000000E9
:1014040000000000000000000000000000000000D8
:1014140000000000000000000000000000000000C8
:040000050800126D70
:00000001FF
